{
  "_format": "hh-sol-artifact-1",
  "contractName": "AssetManagement",
  "sourceName": "contracts/AssetManagement.sol",
  "abi": [
    {
      "inputs": [],
      "stateMutability": "nonpayable",
      "type": "constructor"
    },
    {
      "anonymous": false,
      "inputs": [
        {
          "indexed": false,
          "internalType": "uint256",
          "name": "id",
          "type": "uint256"
        },
        {
          "indexed": false,
          "internalType": "string",
          "name": "name",
          "type": "string"
        },
        {
          "indexed": false,
          "internalType": "uint256",
          "name": "value",
          "type": "uint256"
        },
        {
          "indexed": false,
          "internalType": "address",
          "name": "owner",
          "type": "address"
        }
      ],
      "name": "AssetCreated",
      "type": "event"
    },
    {
      "anonymous": false,
      "inputs": [
        {
          "indexed": false,
          "internalType": "uint256",
          "name": "id",
          "type": "uint256"
        },
        {
          "indexed": false,
          "internalType": "address",
          "name": "from",
          "type": "address"
        },
        {
          "indexed": false,
          "internalType": "address",
          "name": "to",
          "type": "address"
        }
      ],
      "name": "AssetTransferred",
      "type": "event"
    },
    {
      "inputs": [],
      "name": "assetCount",
      "outputs": [
        {
          "internalType": "uint256",
          "name": "",
          "type": "uint256"
        }
      ],
      "stateMutability": "view",
      "type": "function"
    },
    {
      "inputs": [
        {
          "internalType": "uint256",
          "name": "",
          "type": "uint256"
        }
      ],
      "name": "assets",
      "outputs": [
        {
          "internalType": "uint256",
          "name": "id",
          "type": "uint256"
        },
        {
          "internalType": "string",
          "name": "name",
          "type": "string"
        },
        {
          "internalType": "uint256",
          "name": "value",
          "type": "uint256"
        },
        {
          "internalType": "address",
          "name": "currentOwner",
          "type": "address"
        }
      ],
      "stateMutability": "view",
      "type": "function"
    },
    {
      "inputs": [
        {
          "internalType": "string",
          "name": "_name",
          "type": "string"
        },
        {
          "internalType": "uint256",
          "name": "_value",
          "type": "uint256"
        }
      ],
      "name": "createAsset",
      "outputs": [],
      "stateMutability": "nonpayable",
      "type": "function"
    },
    {
      "inputs": [
        {
          "internalType": "uint256",
          "name": "_id",
          "type": "uint256"
        }
      ],
      "name": "getAsset",
      "outputs": [
        {
          "internalType": "string",
          "name": "",
          "type": "string"
        },
        {
          "internalType": "uint256",
          "name": "",
          "type": "uint256"
        },
        {
          "internalType": "address",
          "name": "",
          "type": "address"
        }
      ],
      "stateMutability": "view",
      "type": "function"
    },
    {
      "inputs": [],
      "name": "owner",
      "outputs": [
        {
          "internalType": "address",
          "name": "",
          "type": "address"
        }
      ],
      "stateMutability": "view",
      "type": "function"
    },
    {
      "inputs": [
        {
          "internalType": "uint256",
          "name": "_id",
          "type": "uint256"
        },
        {
          "internalType": "address",
          "name": "_to",
          "type": "address"
        }
      ],
      "name": "transferAsset",
      "outputs": [],
      "stateMutability": "nonpayable",
      "type": "function"
    }
  ],
  "bytecode": "0x608060405234801561001057600080fd5b50336000806101000a81548173ffffffffffffffffffffffffffffffffffffffff021916908373ffffffffffffffffffffffffffffffffffffffff160217905550610e55806100606000396000f3fe608060405234801561001057600080fd5b50600436106100625760003560e01c80638da5cb5b14610067578063cf35bdd014610085578063db9cc410146100b8578063eac8f5b8146100d4578063eafe7a7414610106578063fa62ee8d14610124575b600080fd5b61006f610140565b60405161007c9190610654565b60405180910390f35b61009f600480360381019061009a91906106b9565b610164565b6040516100af9493929190610785565b60405180910390f35b6100d260048036038101906100cd9190610906565b61023c565b005b6100ee60048036038101906100e991906106b9565b610359565b6040516100fd93929190610962565b60405180910390f35b61010e610499565b60405161011b91906109a0565b60405180910390f35b61013e600480360381019061013991906109e7565b61049f565b005b60008054906101000a900473ffffffffffffffffffffffffffffffffffffffff1681565b600160205280600052604060002060009150905080600001549080600101805461018d90610a56565b80601f01602080910402602001604051908101604052809291908181526020018280546101b990610a56565b80156102065780601f106101db57610100808354040283529160200191610206565b820191906000526020600020905b8154815290600101906020018083116101e957829003601f168201915b5050505050908060020154908060030160009054906101000a900473ffffffffffffffffffffffffffffffffffffffff16905084565b6002600081548092919061024f90610ab6565b9190505550604051806080016040528060025481526020018381526020018281526020013373ffffffffffffffffffffffffffffffffffffffff168152506001600060025481526020019081526020016000206000820151816000015560208201518160010190816102c19190610caa565b506040820151816002015560608201518160030160006101000a81548173ffffffffffffffffffffffffffffffffffffffff021916908373ffffffffffffffffffffffffffffffffffffffff1602179055509050507fee12e43f7081ab80c887fd8389c5cfd9d6a005ca13f1d45d0232138bf517932860025483833360405161034d9493929190610785565b60405180910390a15050565b60606000806000600160008681526020019081526020016000206040518060800160405290816000820154815260200160018201805461039890610a56565b80601f01602080910402602001604051908101604052809291908181526020018280546103c490610a56565b80156104115780601f106103e657610100808354040283529160200191610411565b820191906000526020600020905b8154815290600101906020018083116103f457829003601f168201915b50505050508152602001600282015481526020016003820160009054906101000a900473ffffffffffffffffffffffffffffffffffffffff1673ffffffffffffffffffffffffffffffffffffffff1673ffffffffffffffffffffffffffffffffffffffff16815250509050806020015181604001518260600151935093509350509193909250565b60025481565b3373ffffffffffffffffffffffffffffffffffffffff166001600084815260200190815260200160002060030160009054906101000a900473ffffffffffffffffffffffffffffffffffffffff1673ffffffffffffffffffffffffffffffffffffffff1614610543576040517f08c379a000000000000000000000000000000000000000000000000000000000815260040161053a90610dc8565b60405180910390fd5b60006001600084815260200190815260200160002060030160009054906101000a900473ffffffffffffffffffffffffffffffffffffffff169050816001600085815260200190815260200160002060030160006101000a81548173ffffffffffffffffffffffffffffffffffffffff021916908373ffffffffffffffffffffffffffffffffffffffff1602179055507fa993eb3a10693085bc7afc1de0202310fbd5992b9e51edd263b198f62f20cdae83828460405161060693929190610de8565b60405180910390a1505050565b600073ffffffffffffffffffffffffffffffffffffffff82169050919050565b600061063e82610613565b9050919050565b61064e81610633565b82525050565b60006020820190506106696000830184610645565b92915050565b6000604051905090565b600080fd5b600080fd5b6000819050919050565b61069681610683565b81146106a157600080fd5b50565b6000813590506106b38161068d565b92915050565b6000602082840312156106cf576106ce610679565b5b60006106dd848285016106a4565b91505092915050565b6106ef81610683565b82525050565b600081519050919050565b600082825260208201905092915050565b60005b8381101561072f578082015181840152602081019050610714565b60008484015250505050565b6000601f19601f8301169050919050565b6000610757826106f5565b6107618185610700565b9350610771818560208601610711565b61077a8161073b565b840191505092915050565b600060808201905061079a60008301876106e6565b81810360208301526107ac818661074c565b90506107bb60408301856106e6565b6107c86060830184610645565b95945050505050565b600080fd5b600080fd5b7f4e487b7100000000000000000000000000000000000000000000000000000000600052604160045260246000fd5b6108138261073b565b810181811067ffffffffffffffff82111715610832576108316107db565b5b80604052505050565b600061084561066f565b9050610851828261080a565b919050565b600067ffffffffffffffff821115610871576108706107db565b5b61087a8261073b565b9050602081019050919050565b82818337600083830152505050565b60006108a96108a484610856565b61083b565b9050828152602081018484840111156108c5576108c46107d6565b5b6108d0848285610887565b509392505050565b600082601f8301126108ed576108ec6107d1565b5b81356108fd848260208601610896565b91505092915050565b6000806040838503121561091d5761091c610679565b5b600083013567ffffffffffffffff81111561093b5761093a61067e565b5b610947858286016108d8565b9250506020610958858286016106a4565b9150509250929050565b6000606082019050818103600083015261097c818661074c565b905061098b60208301856106e6565b6109986040830184610645565b949350505050565b60006020820190506109b560008301846106e6565b92915050565b6109c481610633565b81146109cf57600080fd5b50565b6000813590506109e1816109bb565b92915050565b600080604083850312156109fe576109fd610679565b5b6000610a0c858286016106a4565b9250506020610a1d858286016109d2565b9150509250929050565b7f4e487b7100000000000000000000000000000000000000000000000000000000600052602260045260246000fd5b60006002820490506001821680610a6e57607f821691505b602082108103610a8157610a80610a27565b5b50919050565b7f4e487b7100000000000000000000000000000000000000000000000000000000600052601160045260246000fd5b6000610ac182610683565b91507fffffffffffffffffffffffffffffffffffffffffffffffffffffffffffffffff8203610af357610af2610a87565b5b600182019050919050565b60008190508160005260206000209050919050565b60006020601f8301049050919050565b600082821b905092915050565b600060088302610b607fffffffffffffffffffffffffffffffffffffffffffffffffffffffffffffffff82610b23565b610b6a8683610b23565b95508019841693508086168417925050509392505050565b6000819050919050565b6000610ba7610ba2610b9d84610683565b610b82565b610683565b9050919050565b6000819050919050565b610bc183610b8c565b610bd5610bcd82610bae565b848454610b30565b825550505050565b600090565b610bea610bdd565b610bf5818484610bb8565b505050565b5b81811015610c1957610c0e600082610be2565b600181019050610bfb565b5050565b601f821115610c5e57610c2f81610afe565b610c3884610b13565b81016020851015610c47578190505b610c5b610c5385610b13565b830182610bfa565b50505b505050565b600082821c905092915050565b6000610c8160001984600802610c63565b1980831691505092915050565b6000610c9a8383610c70565b9150826002028217905092915050565b610cb3826106f5565b67ffffffffffffffff811115610ccc57610ccb6107db565b5b610cd68254610a56565b610ce1828285610c1d565b600060209050601f831160018114610d145760008415610d02578287015190505b610d0c8582610c8e565b865550610d74565b601f198416610d2286610afe565b60005b82811015610d4a57848901518255600182019150602085019450602081019050610d25565b86831015610d675784890151610d63601f891682610c70565b8355505b6001600288020188555050505b505050505050565b7f4f6e6c79206f776e65722063616e207472616e73666572206173736574000000600082015250565b6000610db2601d83610700565b9150610dbd82610d7c565b602082019050919050565b60006020820190508181036000830152610de181610da5565b9050919050565b6000606082019050610dfd60008301866106e6565b610e0a6020830185610645565b610e176040830184610645565b94935050505056fea26469706673582212209f3ce6e56636e8ae00132596a3289ae5c664edacaaa2da98975794d537ce42c364736f6c63430008130033",
  "linkReferences": {},
  "deployedLinkReferences": {}
}